:03000000020545B1
:0C054500787FE4F6D8FD75814B02058C30
:10092A000A1B734C3030303030300A23020C00007E
:0B093A0002270000011A2A020E000034
:030023000209FDD2
:1009FD00C0E0C0D075D000C000C2AF309811C29811
:100A0D00741B250DF8A699050DE50D7002050CD288
:080A1D00AFD000D0D0D0E032D0
:0E0B5100758921758A66758CFCD2A9D2AF22F7
:03000B00020A25C1
:100A2500C0E0C0D0C28D758A66758CFC0547E54768
:100A3500B4120BC28C758A66758CFC754700D0D0D4
:030A4500D0E032CC
:10002600120B08120B51120BF17F017E00120A8689
:10003600E48F0BF50AF509F508F518F519120ADC2F
:10004600751021751123E4F518F519F50CF50D1247
:1000560008FEE5284527700302038CE50F450E7060
:10006600047F0180027F00750E008F0FE50F450E9D
:1000760070030203721206C720B74A7F057E00127C
:100086000A6820B740E47FF47E01FDFCAB0BAA0AA8
:10009600A909A808C31204615017E50B2432F50B11
:1000A600E4350AF50AE43509F509E43508F508806A
:1000B6000BE4750BF4750A01F509F508AD0B7F0124
:1000C6007E00120AA420B64B7F057E00120A682025
:1000D600B641E47F32FEFDFCAB0BAA0AA909A808CB
:1000E600D3120461401AE50B9432F50BE50A94002D
:1000F600F50AE5099400F509E5089400F508800A73
:10010600E4750B32F50AF509F508AD0B7F017E00A3
:10011600120AA4E51BB45E40E47FF47E01FDFCAB4D
:100126000BAA0AA909A808C31204615017E50B24F3
:1001360032F50BE4350AF50AE43509F509E4350824
:10014600F508800BE4750BF4750A01F509F508ADA1
:100156000B7F017E00120AA4E51BB42D41E47F3219
:10016600FEFDFCAB0BAA0AA909A808D3120461403C
:100176001AE50B9432F50BE50A9400F50AE50994A5
:1001860000F509E5089400F508800AE4750B32F5D8
:100196000AF509F508AD0B7F017E00120AA4120BC1
:1001A600BB3096FD12065DE4FFFEFDFCAB4BAA4A92
:1001B600A949A848D31204615003020327AF0BAE26
:1001C6000AAD09AC08A848D312046140030203270C
:1001D600120BAE7FF47E01120A68120B7A751B6C45
:1001E600E47B64FAF9F8AF0BAE0AAD09AC08120865
:1001F6001CEF2430F521E47B0AFAF9F8AF0BAE0ABE
:10020600AD09AC0812081CE47B0AFAF9F812081CBE
:10021600EB2430F5227B007A00791B1208D2850B7D
:1002260042850A4185094085083FAF4BAE4AAD4934
:10023600AC481208607F0C7E00120A68120BAE7F73
:10024600907E01120A68120BA1751B66E47B64FAA4
:10025600F9F8AF0BAE0AAD09AC0812081CEF243052
:10026600F521E47B0AFAF9F8AF0BAE0AAD09AC0842
:1002760012081CE47B0AFAF9F812081CEB2430F584
:10028600227B007A00791B1208D2850B42850A412F
:1002960085094085083FAF4BAE4AAD49AC481208C8
:1002A600607F1E7E00120A68120BAE7F907E0112DE
:1002B6000A68120B87751B72E47B64FAF9F8AF0BB8
:1002C600AE0AAD09AC0812081CEF2430F521E47B18
:1002D6000AFAF9F8AF0BAE0AAD09AC0812081CE42D
:1002E6007B0AFAF9F812081CEB2430F5227B007A17
:1002F60000791B1208D2850B42850A418509408583
:10030600083FAF4BAE4AAD49AC481208607F0A7E43
:1003160000120A68120BAE7F907E01120A68020074
:100326004C7F647E001208A1751B66751C4DE47B2C
:1003360064FAF9F8AF0BAE0AAD09AC0812081CEF67
:100346002430F521E47B0AFAF9F8AF0BAE0AAD09C1
:10035600AC0812081CE47B0AFAF9F812081CEB2414
:1003660030F5227B007A00791B1208D2850B428574
:100376000A4185094085083FAF4BAE4AAD49AC48B6
:0C03860012086002004C1206C702004C76
:100A6800D3EF9400EE940040147D727C00ED1D706D
:0D0A7800011CED4C70F7EF1F70E61E80E3CF
:010A8500224E
:100AC100EF1FAA0670011ED39400EA9400400BE4C4
:0A0AD100FDEDC3947D50E90D80F7A0
:010ADB0022F8
:100ADC00759850758921E4F587758DFD758BFDD260
:060AEC008ED2ACD2AF2255
:100A4800E4FDFCC3ED9FEC9E5015E4FBFA0BBB00E4
:0F0A5800010AEB64954A70F50DBD00010C80E4B6
:010A6700226C
:080003008F993099FDC299228A
:1008D2008B3B8A3C893DAB3BAA3CA93D120392FF6C
:1008E200642360171200037F027E00120A4874011B
:0B08F200253DF53DE4353CF53C80DB86
:0108FD0022D8
:10000E00E4FEC2A7EF3392A6EF25E0FFD2A70EBE05
:04001E0008F0C2A67E
:0100220022BB
:100AF200E4FFFEC2A7EF25E0FFD2A7A2A5E433429E
:050B0200070EBE08EE25
:010B070022CB
:0A0BDD00C2A47F0612000ED2A4226B
:0A0BE700C2A47F0412000ED2A42263
:0C0B6D00C2A47F0512000E120AF2D2A4EE
:010B79002259
:0D0B5F00E4FD120B6DEF30E0040DBD99F5C3
:010B6C002266
:100B4000C2A47F0112000EE4FF12000ED2A4020B19
:010B50005F45
:100AA400AB07AA06120BDDC2A47F0212000EAF032D
:0D0AB40012000EAF0512000ED2A4020B5F5F
:040A8600AD07AC0606
:100A8A00C2A4EC30E0047F0B80027F0312000EAF99
:090A9A000512000E120AF2D2A4AA
:010AA3002230
:100B1C00C290C2918F807F057E00120A68D292C269
:020B2C00922213
:100B2E00D290C2918F807F057E00120A68D292C247
:020B3E00922201
:0B0BC700303132333435363738390016
:100B08007F38120B1C7F0C120B1C7F06120B1C7FEC
:040B180001020B1CAF
:100727007F80120B1C7F53120B2E7F74120B2E7FB0
:1007370061120B2E7F74120B2E7F65120B2E7F3AE0
:10074700120B2EAF1B120B2E7F87120B1C7F201252
:100757000B2E7F53120B2E7F70120B2E7F65120B01
:100767002E7F65120B2E7F64120B2E7F3A120B2EF3
:05077700AF1C020B2E77
:1007D1007FC0120B1C7F64120B2E7F69120B2E7FC0
:1007E10073120B2E7F74120B2E7F61120B2E7F6EF4
:1007F100120B2E7F63120B2E7F65120B2E7F3A1286
:100801000B2E7FCC120B1C7F2E120B2E7FCE120BC8
:0B0811001C7F63120B2E7F6D020B2E6C
:0405D100AB07AA06C4
:1005D5007C037DE81203BD8F437C007D64AF03AED1
:1005E500021203BD7C007D0A1203BD8D447C007D93
:1005F5000AAF03AE021203BD7C007D0A1203BD8D56
:1006050045AE02AF037C007D0A1203BD8D46E5436E
:100615002430F51DE5442430F51EE5452430F51F4D
:10062500E5462430F5207FC9120B1CE543900BC726
:1006350093FF120B2EE544900BC793FF120B2EE58B
:1006450045900BC793FF120B2E7FCD120B1CE54671
:08065500900BC793FF020B2E6E
:10077C007FC0120B1C7F4E120B2E7F30120B2E7F64
:10078C0020120B2E7F6F120B2E7F62120B2E7F739B
:10079C00120B2E7F74120B2E7F61120B2E7F6312A5
:1007AC000B2E7F6C120B2E7F65120B2E7F73120B90
:1007BC002E7F20120B2E7F20120B2E7F20120B2E41
:0507CC007F20020B2E4E
:100860008F3E8E3D8D3C8C3BAF42AE41AD40AC3FA8
:10087000AB3EAA3DA93CA83BC3120461400B120742
:100880002712077C751D24800D1207271207D1AE91
:100890003DAF3E1205D1120BF17F327E00120AC12C
:0108A0002235
:0C0BBB00D2937F027E00120A68C29322CF
:080BF100C293C296E4F547220D
:10065D00D28C2096FDC28CAD8AAF8CEFFE7C00E46F
:10066D002DFFEC3EAB07FA749A2BFB74033AFAAFED
:10067D00477E007C037DE81203ABEF2BFFEE3AFEC5
:10068D00E48F4B8E4AF549F548758A66758CFC7F6B
:10069D001EFE120AC1E47F7D7E0DFDFCAB4BAA4A06
:1006AD00A949A848120412E47B207A4EF9F81208E1
:0906BD001C8F4B8E4A8D498C48BC
:0106C6002211
:0F0945000234000002390000022E0000012D7361
:0B0BD200EF1FAC0670011E4C70F622F5
:1006C700851C31E531B44C06752E00752F28E531B0
:1006D700B44D06752E00752F4BE531B44806752EBF
:1006E70000752F64851B2DE52DB46607AF2FAE2E41
:1006F7001209D3E52DB46C07AF2FAE2E120955E5BD
:100707002DB47207AF2FAE2E12097FE52DB4620705
:10071700AF2FAE2E1209A9E52DB47303120BAE222B
:1008FE0020B2137F057E00120A6820B20930B2FDC5
:10090E0075270075280120B3127F057E00120A6834
:0C091E0020B30830B3FDE4F527F52822D3
:10095500AB07AA06D290D297D2A0C2A1C2A2D2A3B7
:10096500120BD2D290D297C2A0C2A1C2A2C2A3C377
:0A09750074649BFFE49AFE020BD2AB
:0D0B7A00D290D297D2A0C2A1C2A2D2A322D3
:10097F00AB07AA06D290D297C2A0D2A1D2A2C2A38D
:10098F00120BD2D290D297C2A0C2A1C2A2C2A3C34D
:0A099F0074649BFFE49AFE020BD281
:0D0B8700D290D297C2A0D2A1D2A2C2A322C6
:1009A900AB07AA06D290D297D2A0C2A1D2A2C2A363
:1009B900120BD2D290D297C2A0C2A1C2A2C2A3C323
:0A09C90074649BFFE49AFE020BD257
:0D0B9400D290D297D2A0C2A1D2A2C2A322B9
:1008A100AB07AA06D290D297C2A0D2A1C2A2D2A36C
:1008B1007C007D651203AB120BD2D290D297C2A0FD
:1008C100C2A1C2A2C2A3C374649BFFE49AFE020B3D
:0108D100D254
:1009D300AB07AA06D290D297C2A0D2A1C2A2D2A339
:1009E300120BD2D290D297C2A0C2A1C2A2C2A3C3F9
:0A09F30074649BFFE49AFE020BD22D
:0D0BA100D290D297C2A0D2A1C2A2D2A322AC
:0D0BAE00D290D297C2A0C2A1C2A2C2A322BF
:10055100020026E493A3F8E493A34003F68001F29A
:1005610008DFF48029E493A3F85407240CC8C333AB
:10057100C4540F4420C8834004F456800146F6DF7A
:10058100E4800B010204081020408090092AE47ED7
:10059100019360BCA3FF543F30E509541FFEE4936F
:1005A100A360010ECF54C025E060A840B8E493A336
:1005B100FAE493A3F8E493A3C8C582C8CAC583CA61
:1005C100F0A3C8C582C8CAC583CADFE9DEE780BE19
:0109540000A2
:10039200BB010689828A83E0225002E722BBFE0269
:0903A200E32289828A83E493229C
:1003AB00EF8DF0A4A8F0CF8CF0A428CE8DF0A42E66
:0203BB00FE2220
:1003BD00BC000BBE0029EF8DF084FFADF022E4CC24
:1003CD00F875F008EF2FFFEE33FEEC33FCEE9DECED
:1003DD00984005FCEE9DFE0FD5F0E9E4CEFD22ED33
:1003ED00F8F5F0EE8420D21CFEADF075F008EF2F7D
:1003FD00FFED33FD4007985006D5F0F222C398FD6E
:05040D000FD5F0EA220A
:10041200E88FF0A4CC8BF0A42CFCE98EF0A42CFC89
:100422008AF0EDA42CFCEA8EF0A4CDA8F08BF0A407
:100432002DCC3825F0FDE98FF0A42CCD35F0FCEB66
:100442008EF0A4FEA9F0EB8FF0A4CFC5F02ECD392B
:0F045200FEE43CFCEAA42DCE35F0FDE43CFC2298
:10081C00C2D5E830E70FB2D5E4C39BFBE49AFAE407
:10082C0099F9E498F8EC30E717B2D5120852120493
:10083C00B3E4C39BFBE49AFAE499F9E498F88003D7
:10084C001204B330D50DE4C39FFFE49EFEE49DFD7E
:04085C00E49CFC22FA
:10046100EB9FF5F0EA9E42F0E99D42F0EC6480C812
:0604710064809845F022B2
:1004770075F008758200EF2FFFEE33FECD33CDCC3C
:1004870033CCC58233C5829BED9AEC99E5829840BF
:100497000CF582EE9BFEED9AFDEC99FC0FD5F0D69C
:1004A700E4CEFBE4CDFAE4CCF9A88222B800C1B9C6
:1004B7000059BA002DEC8BF084CFCECDFCE5F0CB04
:1004C700F97818EF2FFFEE33FEED33FDEC33FCEB3D
:1004D70033FB10D703994004EB99FB0FD8E5E4F9F8
:1004E700FA227818EF2FFFEE33FEED33FDEC33FCE5
:1004F700C933C910D7059BE99A4007EC9BFCE99AD9
:10050700F90FD8E0E4C9FAE4CCFB2275F010EF2F1D
:10051700FFEE33FEED33FDCC33CCC833C810D7071D
:100527009BEC9AE899400AED9BFDEC9AFCE899F858
:0E0537000FD5F0DAE4CDFBE4CCFAE4C8F922EB
:00000001FF
